{
  "_format": "hh-sol-artifact-1",
  "contractName": "Scholarship",
  "sourceName": "contracts/Scholarship.sol",
  "abi": [
    {
      "inputs": [],
      "stateMutability": "nonpayable",
      "type": "constructor"
    },
    {
      "inputs": [
        {
          "internalType": "address",
          "name": "owner",
          "type": "address"
        }
      ],
      "name": "OwnableInvalidOwner",
      "type": "error"
    },
    {
      "inputs": [
        {
          "internalType": "address",
          "name": "account",
          "type": "address"
        }
      ],
      "name": "OwnableUnauthorizedAccount",
      "type": "error"
    },
    {
      "anonymous": false,
      "inputs": [
        {
          "indexed": true,
          "internalType": "address",
          "name": "previousOwner",
          "type": "address"
        },
        {
          "indexed": true,
          "internalType": "address",
          "name": "newOwner",
          "type": "address"
        }
      ],
      "name": "OwnershipTransferred",
      "type": "event"
    },
    {
      "anonymous": false,
      "inputs": [
        {
          "indexed": true,
          "internalType": "uint256",
          "name": "scholarshipId",
          "type": "uint256"
        },
        {
          "indexed": true,
          "internalType": "address",
          "name": "recipient",
          "type": "address"
        },
        {
          "indexed": false,
          "internalType": "uint256",
          "name": "amount",
          "type": "uint256"
        }
      ],
      "name": "ScholarshipClaimed",
      "type": "event"
    },
    {
      "anonymous": false,
      "inputs": [
        {
          "indexed": true,
          "internalType": "uint256",
          "name": "scholarshipId",
          "type": "uint256"
        },
        {
          "indexed": true,
          "internalType": "address",
          "name": "recipient",
          "type": "address"
        },
        {
          "indexed": false,
          "internalType": "uint256",
          "name": "amount",
          "type": "uint256"
        },
        {
          "indexed": false,
          "internalType": "uint256",
          "name": "deadline",
          "type": "uint256"
        }
      ],
      "name": "ScholarshipCreated",
      "type": "event"
    },
    {
      "inputs": [
        {
          "internalType": "uint256",
          "name": "_id",
          "type": "uint256"
        }
      ],
      "name": "claimScholarship",
      "outputs": [],
      "stateMutability": "nonpayable",
      "type": "function"
    },
    {
      "inputs": [
        {
          "internalType": "uint256",
          "name": "_id",
          "type": "uint256"
        },
        {
          "internalType": "address",
          "name": "_recipient",
          "type": "address"
        },
        {
          "internalType": "uint256",
          "name": "_amount",
          "type": "uint256"
        },
        {
          "internalType": "uint256",
          "name": "_deadline",
          "type": "uint256"
        }
      ],
      "name": "createScholarship",
      "outputs": [],
      "stateMutability": "nonpayable",
      "type": "function"
    },
    {
      "inputs": [
        {
          "internalType": "uint256",
          "name": "_id",
          "type": "uint256"
        }
      ],
      "name": "getScholarship",
      "outputs": [
        {
          "internalType": "address",
          "name": "recipient",
          "type": "address"
        },
        {
          "internalType": "uint256",
          "name": "amount",
          "type": "uint256"
        },
        {
          "internalType": "uint256",
          "name": "deadline",
          "type": "uint256"
        },
        {
          "internalType": "bool",
          "name": "claimed",
          "type": "bool"
        }
      ],
      "stateMutability": "view",
      "type": "function"
    },
    {
      "inputs": [],
      "name": "owner",
      "outputs": [
        {
          "internalType": "address",
          "name": "",
          "type": "address"
        }
      ],
      "stateMutability": "view",
      "type": "function"
    },
    {
      "inputs": [],
      "name": "renounceOwnership",
      "outputs": [],
      "stateMutability": "nonpayable",
      "type": "function"
    },
    {
      "inputs": [
        {
          "internalType": "uint256",
          "name": "",
          "type": "uint256"
        }
      ],
      "name": "scholarships",
      "outputs": [
        {
          "internalType": "address",
          "name": "recipient",
          "type": "address"
        },
        {
          "internalType": "uint256",
          "name": "amount",
          "type": "uint256"
        },
        {
          "internalType": "uint256",
          "name": "deadline",
          "type": "uint256"
        },
        {
          "internalType": "bool",
          "name": "claimed",
          "type": "bool"
        }
      ],
      "stateMutability": "view",
      "type": "function"
    },
    {
      "inputs": [
        {
          "internalType": "address",
          "name": "newOwner",
          "type": "address"
        }
      ],
      "name": "transferOwnership",
      "outputs": [],
      "stateMutability": "nonpayable",
      "type": "function"
    },
    {
      "stateMutability": "payable",
      "type": "receive"
    }
  ],
  "bytecode": "0x608060405234801561001057600080fd5b5033600073ffffffffffffffffffffffffffffffffffffffff168173ffffffffffffffffffffffffffffffffffffffff16036100845760006040517f1e4fbdf700000000000000000000000000000000000000000000000000000000815260040161007b919061019e565b60405180910390fd5b6100938161009960201b60201c565b506101b9565b60008060009054906101000a900473ffffffffffffffffffffffffffffffffffffffff169050816000806101000a81548173ffffffffffffffffffffffffffffffffffffffff021916908373ffffffffffffffffffffffffffffffffffffffff1602179055508173ffffffffffffffffffffffffffffffffffffffff168173ffffffffffffffffffffffffffffffffffffffff167f8be0079c531659141344cd1fd0a4f28419497f9722a3daafe3b4186f6b6457e060405160405180910390a35050565b600073ffffffffffffffffffffffffffffffffffffffff82169050919050565b60006101888261015d565b9050919050565b6101988161017d565b82525050565b60006020820190506101b3600083018461018f565b92915050565b61107e806101c86000396000f3fe6080604052600436106100745760003560e01c8063715018a61161004e578063715018a6146101125780638da5cb5b14610129578063a3bf4f4c14610154578063f2fde38b146101945761007b565b806334e617a11461008057806339dc58c6146100a95780634dd0c88e146100e95761007b565b3661007b57005b600080fd5b34801561008c57600080fd5b506100a760048036038101906100a29190610adb565b6101bd565b005b3480156100b557600080fd5b506100d060048036038101906100cb9190610adb565b610499565b6040516100e09493929190610b73565b60405180910390f35b3480156100f557600080fd5b50610110600480360381019061010b9190610be4565b6104f6565b005b34801561011e57600080fd5b506101276107b9565b005b34801561013557600080fd5b5061013e6107cd565b60405161014b9190610c4b565b60405180910390f35b34801561016057600080fd5b5061017b60048036038101906101769190610adb565b6107f6565b60405161018b9493929190610b73565b60405180910390f35b3480156101a057600080fd5b506101bb60048036038101906101b69190610c66565b6108c7565b005b6000600160008381526020019081526020016000209050600073ffffffffffffffffffffffffffffffffffffffff168160000160009054906101000a900473ffffffffffffffffffffffffffffffffffffffff1673ffffffffffffffffffffffffffffffffffffffff1603610267576040517f08c379a000000000000000000000000000000000000000000000000000000000815260040161025e90610cf0565b60405180910390fd5b8060000160009054906101000a900473ffffffffffffffffffffffffffffffffffffffff1673ffffffffffffffffffffffffffffffffffffffff163373ffffffffffffffffffffffffffffffffffffffff16146102f9576040517f08c379a00000000000000000000000000000000000000000000000000000000081526004016102f090610d5c565b60405180910390fd5b8060020154421115610340576040517f08c379a000000000000000000000000000000000000000000000000000000000815260040161033790610dc8565b60405180910390fd5b8060030160009054906101000a900460ff1615610392576040517f08c379a000000000000000000000000000000000000000000000000000000000815260040161038990610e34565b60405180910390fd5b60018160030160006101000a81548160ff0219169083151502179055508060000160009054906101000a900473ffffffffffffffffffffffffffffffffffffffff1673ffffffffffffffffffffffffffffffffffffffff166108fc82600101549081150290604051600060405180830381858888f1935050505015801561041d573d6000803e3d6000fd5b508060000160009054906101000a900473ffffffffffffffffffffffffffffffffffffffff1673ffffffffffffffffffffffffffffffffffffffff16827fe2a21fe2d7d8c30c0f6bf75959a18a060e2ef277d8f3e72cc9d979898d379bd0836001015460405161048d9190610e54565b60405180910390a35050565b60016020528060005260406000206000915090508060000160009054906101000a900473ffffffffffffffffffffffffffffffffffffffff16908060010154908060020154908060030160009054906101000a900460ff16905084565b6104fe61094d565b600073ffffffffffffffffffffffffffffffffffffffff168373ffffffffffffffffffffffffffffffffffffffff160361056d576040517f08c379a000000000000000000000000000000000000000000000000000000000815260040161056490610ebb565b60405180910390fd5b600082116105b0576040517f08c379a00000000000000000000000000000000000000000000000000000000081526004016105a790610f27565b60405180910390fd5b4281116105f2576040517f08c379a00000000000000000000000000000000000000000000000000000000081526004016105e990610f93565b60405180910390fd5b600073ffffffffffffffffffffffffffffffffffffffff166001600086815260200190815260200160002060000160009054906101000a900473ffffffffffffffffffffffffffffffffffffffff1673ffffffffffffffffffffffffffffffffffffffff1614610697576040517f08c379a000000000000000000000000000000000000000000000000000000000815260040161068e90610fff565b60405180910390fd5b60405180608001604052808473ffffffffffffffffffffffffffffffffffffffff168152602001838152602001828152602001600015158152506001600086815260200190815260200160002060008201518160000160006101000a81548173ffffffffffffffffffffffffffffffffffffffff021916908373ffffffffffffffffffffffffffffffffffffffff160217905550602082015181600101556040820151816002015560608201518160030160006101000a81548160ff0219169083151502179055509050508273ffffffffffffffffffffffffffffffffffffffff16847f0bb6a7bc808303850427848c03dd274c96fcdd419efc0ee3982269565aab7a3284846040516107ab92919061101f565b60405180910390a350505050565b6107c161094d565b6107cb60006109d4565b565b60008060009054906101000a900473ffffffffffffffffffffffffffffffffffffffff16905090565b6000806000806000600160008781526020019081526020016000206040518060800160405290816000820160009054906101000a900473ffffffffffffffffffffffffffffffffffffffff1673ffffffffffffffffffffffffffffffffffffffff1673ffffffffffffffffffffffffffffffffffffffff16815260200160018201548152602001600282015481526020016003820160009054906101000a900460ff161515151581525050905080600001518160200151826040015183606001519450945094509450509193509193565b6108cf61094d565b600073ffffffffffffffffffffffffffffffffffffffff168173ffffffffffffffffffffffffffffffffffffffff16036109415760006040517f1e4fbdf70000000000000000000000000000000000000000000000000000000081526004016109389190610c4b565b60405180910390fd5b61094a816109d4565b50565b610955610a98565b73ffffffffffffffffffffffffffffffffffffffff166109736107cd565b73ffffffffffffffffffffffffffffffffffffffff16146109d257610996610a98565b6040517f118cdaa70000000000000000000000000000000000000000000000000000000081526004016109c99190610c4b565b60405180910390fd5b565b60008060009054906101000a900473ffffffffffffffffffffffffffffffffffffffff169050816000806101000a81548173ffffffffffffffffffffffffffffffffffffffff021916908373ffffffffffffffffffffffffffffffffffffffff1602179055508173ffffffffffffffffffffffffffffffffffffffff168173ffffffffffffffffffffffffffffffffffffffff167f8be0079c531659141344cd1fd0a4f28419497f9722a3daafe3b4186f6b6457e060405160405180910390a35050565b600033905090565b600080fd5b6000819050919050565b610ab881610aa5565b8114610ac357600080fd5b50565b600081359050610ad581610aaf565b92915050565b600060208284031215610af157610af0610aa0565b5b6000610aff84828501610ac6565b91505092915050565b600073ffffffffffffffffffffffffffffffffffffffff82169050919050565b6000610b3382610b08565b9050919050565b610b4381610b28565b82525050565b610b5281610aa5565b82525050565b60008115159050919050565b610b6d81610b58565b82525050565b6000608082019050610b886000830187610b3a565b610b956020830186610b49565b610ba26040830185610b49565b610baf6060830184610b64565b95945050505050565b610bc181610b28565b8114610bcc57600080fd5b50565b600081359050610bde81610bb8565b92915050565b60008060008060808587031215610bfe57610bfd610aa0565b5b6000610c0c87828801610ac6565b9450506020610c1d87828801610bcf565b9350506040610c2e87828801610ac6565b9250506060610c3f87828801610ac6565b91505092959194509250565b6000602082019050610c606000830184610b3a565b92915050565b600060208284031215610c7c57610c7b610aa0565b5b6000610c8a84828501610bcf565b91505092915050565b600082825260208201905092915050565b7f5363686f6c61727368697020646f6573206e6f74206578697374000000000000600082015250565b6000610cda601a83610c93565b9150610ce582610ca4565b602082019050919050565b60006020820190508181036000830152610d0981610ccd565b9050919050565b7f4f6e6c792074686520726563697069656e742063616e20636c61696d00000000600082015250565b6000610d46601c83610c93565b9150610d5182610d10565b602082019050919050565b60006020820190508181036000830152610d7581610d39565b9050919050565b7f446561646c696e65207061737365640000000000000000000000000000000000600082015250565b6000610db2600f83610c93565b9150610dbd82610d7c565b602082019050919050565b60006020820190508181036000830152610de181610da5565b9050919050565b7f5363686f6c61727368697020616c726561647920636c61696d65640000000000600082015250565b6000610e1e601b83610c93565b9150610e2982610de8565b602082019050919050565b60006020820190508181036000830152610e4d81610e11565b9050919050565b6000602082019050610e696000830184610b49565b92915050565b7f496e76616c696420726563697069656e74000000000000000000000000000000600082015250565b6000610ea5601183610c93565b9150610eb082610e6f565b602082019050919050565b60006020820190508181036000830152610ed481610e98565b9050919050565b7f416d6f756e74206d7573742062652067726561746572207468616e2030000000600082015250565b6000610f11601d83610c93565b9150610f1c82610edb565b602082019050919050565b60006020820190508181036000830152610f4081610f04565b9050919050565b7f446561646c696e65206d75737420626520696e20667574757265000000000000600082015250565b6000610f7d601a83610c93565b9150610f8882610f47565b602082019050919050565b60006020820190508181036000830152610fac81610f70565b9050919050565b7f5363686f6c61727368697020494420616c726561647920657869737473000000600082015250565b6000610fe9601d83610c93565b9150610ff482610fb3565b602082019050919050565b6000602082019050818103600083015261101881610fdc565b9050919050565b60006040820190506110346000830185610b49565b6110416020830184610b49565b939250505056fea2646970667358221220d16c3a53ac611ca13d453e7b38b30c831c017881d864251480dbd12ff4fc1a3e64736f6c63430008140033",
  "linkReferences": {},
  "deployedLinkReferences": {}
}